:040000008A11112828
:10000800FE00030EF0000408F1000A08F200831253
:1000180003137F08F3008A11962E8A11E82E8312A3
:1000280003179E019F0199019A01763083160313E5
:100038008F0085018312031385018316031386013C
:100048008312031386018A11DA268A116630831215
:100058000313B3007730B2002430B100B10B32285B
:10006800B20B3228B30B322864008A114C268A114D
:100078008A11FF258A11402883120313D101D20166
:100088005208803AFF0080307F02031D4D2804305B
:100098005102031C50285128532840284028831215
:1000A80003135108103EB1003108D3005108543EE3
:1000B800840083130008FF3A031963286428AF2BD0
:1000C80079140830DA000030DB00F9186C286D2844
:1000D800AF2B1A30B200F830B100B10B7128B20B57
:1000E8007128640083120313A401A50153088A111F
:1000F800BE268A1100308A11C9238A11831203137C
:10010800B1003108B4008928AF2BF9188C288D2844
:10011800AF2B1A30B200F830B100B10B9128B20BF6
:100128009128640083120313A401A5010314A50DEB
:1001380053088A11BE268A1100308A11C9238A11F0
:1001480083120313B1003108BD000630B20030300D
:10015800B100B10BAD28B20BAD28640000308A1194
:10016800C9238A1183120313B1003108BE00BD28C8
:10017800AF2BF918C028C128AF2B1A30B200F830BD
:10018800B100B10BC528B20BC52864008312031354
:10019800A4010230B1003108A50053088A11BE2617
:1001A8008A1100308A11C9238A1183120313B100FE
:1001B8003108BF000630B2003030B100B10BE22880
:1001C800B20BE228640000308A11C9238A11831215
:1001D8000313B1003108C000F228AF2BF918F52835
:1001E800F628AF2B1A30B200F830B100B10BFA285C
:1001F800B20BFA28640083120313A4010330B10080
:100208003108A50053088A11BE268A1100308A11C8
:10021800C9238A1183120313B1003108C1000630C3
:10022800B2003030B100B10B1729B20B17296400A6
:1002380000308A11C9238A1183120313B1003108CF
:10024800C2002729AF2BF9182A292B29AF2B1A30DE
:10025800B200F830B100B10B2F29B20B2F2964007E
:1002680083120313A4010430B1003108A500530818
:100278008A11BE268A1100308A11C9238A11831275
:100288000313B1003108C3000630B2003030B100AA
:10029800B10B4C29B20B4C29640000308A11C923D8
:1002A8008A1183120313B1003108C4005C29AF2BF3
:1002B800F9185F296029AF2B1A30B200F830B10065
:1002C800B10B6429B20B6429640083120313A401DF
:1002D8000530B1003108A50053088A11BE268A11DD
:1002E80000308A11C9238A1183120313B10031081F
:1002F800C5000630B2003030B100B10B8129B20B15
:100308008129640000308A11C9238A1183120313DA
:10031800B1003108C6009129AF2BF9189429952905
:10032800AF2B1A30B200F830B100B10B9929B20BDB
:100338009929640083120313A4010630B10031081F
:10034800A50053088A11BE268A1100308A11C923D4
:100358008A1183120313B1003108C7000630B200B6
:100368003030B100B10BB629B20BB62964000030A9
:100378008A11C9238A1183120313B1003108C800F6
:10038800C629AF2BF918C929CA29AF2B1A30B200D0
:10039800F830B100B10BCE29B20BCE29640083121C
:1003A8000313A4010730B1003108A50053088A11CE
:1003B800BE268A1100308A11C9238A1183120313B9
:1003C800B1003108C9000630B2003030B100B10BBD
:1003D800EB29B20BEB29640000308A11C9238A117A
:1003E80083120313B1003108CA00FB29AF2BF91897
:1003F800FE29FF29AF2B1A30B200F830B100B10B3B
:10040800032AB20B032A640083120313A4010830E1
:10041800B1003108A50053088A11BE268A110030A0
:100428008A11C9238A1183120313B1003108CB0042
:100438000630B2003030B100B10B202AB20B202AAE
:10044800640000308A11C9238A1183120313B10092
:100458003108CC00302AAF2B1A30B200F830B10086
:10046800B10B342AB20B342A64007910013083129C
:100478000313DA000030DB003F08B1003108B50093
:100488004308B1003108B7004708B1003108B90086
:100498004B08B1003108BB004008B1003108B60074
:1004A8004408B1003108B8004808B1003108BA0062
:1004B8004C08B1003108BC0035308A1155248A1126
:1004C800831203132408D001D0072308CF01CF07D4
:1004D8005008B1003108CD004F08B1003108CE00F6
:1004E800A401A5010314A50DF0308A11BE268A11B6
:1004F8001A3083120313B200F830B100B10B822A0C
:10050800B20B822A640083120313A4015108B100BC
:100518003108A500F0308A11BE268A111A308312DC
:100528000313B200F830B100B10B982AB20B982A25
:10053800640083120313A4013D08B1003108A5002B
:10054800F0308A11BE268A111A3083120313B200C2
:10055800F830B100B10BAE2AB20BAE2A6400831298
:100568000313A4013E08B1003108A500F0308A1138
:10057800BE268A111A3083120313B200F830B10074
:10058800B10BC42AB20BC42A640083120313A4015A
:100598004108B1003108A500F0308A11BE268A1141
:1005A8001A3083120313B200F830B100B10BDA2A03
:1005B800B20BDA2A640083120313A4014208B100C3
:1005C8003108A500F0308A11BE268A111A3083122C
:1005D8000313B200F830B100B10BF02AB20BF02AC5
:1005E800640083120313A4014508B1003108A50073
:1005F800F0308A11BE268A111A3083120313B20012
:10060800F830B100B10B062BB20B062B6400831235
:100618000313A4014608B1003108A500F0308A117F
:10062800BE268A111A3083120313B200F830B100C3
:10063800B10B1C2BB20B1C2B640083120313A401F7
:100648004908B1003108A500F0308A11BE268A1188
:100658001A3083120313B200F830B100B10B322BF9
:10066800B20B322B640083120313A4014A08B100B1
:100678003108A500F0308A11BE268A111A3083127B
:100688000313B200F830B100B10B482BB20B482B62
:10069800640083120313A4014D08B1003108A500BA
:1006A800F0308A11BE268A111A3083120313B20061
:1006B800F830B100B10B5E2BB20B5E2B64008312D5
:1006C8000313A4014E08B1003108A500F0308A11C7
:1006D800BE268A110B3083120313B3002630B200F2
:1006E8006630B100B10B762BB20B762BB30B762BA1
:1006F8007D2B83120313A4010230B1003108A50039
:10070800F0308A11BE268A111A3083120313B20000
:10071800F830B100B10B8E2BB20B8E2B6400831214
:100728000313A4015108B1003108A500F0308A1163
:10073800BE268A111F3083120313B3007130B20032
:100748003B30B100B10BA62BB20BA62BB30BA62BDB
:100758006400AF2BAF2B013083120313D1070318AA
:10076800D20A0030D2075208803AFF0080307F0258
:10077800031DC02B04305102031CC32BC42B532868
:100788004028402840288A11112883120313A50005
:10079800F910D801D9011010791CD32BD42BE22BD6
:1007A8008F018E01303090000130831603138C00C6
:1007B800C0308B00831203131014E22BA801A90187
:1007C8004D2CE62B861FE92BEA2BEF2BF91CED2B82
:1007D800EE2BE62BEF2BF91CF22BF32BF62BFF302D
:1007E800542C542C8A11D6248A11F60076088312C8
:1007F8000313A6000630F600F60B002C6400042C48
:1008080083120313861F092C0A2C0F2CF91C0D2C9C
:100818000E2C042C0F2CF91C122C132C162CFF3028
:10082800542C542C8A11D6248A11F6007608831287
:100838000313A4000630F600F60B202C6400242CC9
:1008480083120313861F292C2A2C2F2CF91C2D2CDC
:100858002E2C242C2F2CF91C322C332C362CFF3028
:10086800542C542C8A11D6248A11F6007608831247
:100878000313A70026082506031D432C442C4D2CE2
:100888000130A8000030A90010102708542C542C5F
:100898004D2C290828040319522C532CE62B542CD0
:1008A800080083120313AE00AC01AD01AA01AB012D
:1008B800AF01B0013008803AFF0080307F02031D8D
:1008C800672C04302F02031C6A2C6B2C6D2CAF2C68
:1008D800AF2C831203132F08A50025072E07A600A7
:1008E8002608840083130008FF3A03197C2C7D2C0A
:1008F8009B2C0130AC070318AD0A0030AD072F0858
:10090800A50025072E07A600260884000008A700D2
:100918002F08A80028072E07A9002908013E8400EF
:100928000008AA070318AB0A2708AB079B2C01305D
:10093800AF070318B00A0030B0073008803AFF004C
:1009480080307F02031DAA2C04302F02031CAD2C1B
:10095800AE2C6D2CAF2C831203132D082C04031915
:10096800B62CB72CD12C2D08F501F5072C08F4016D
:10097800F4072B08F701F7072A08F601F6078A118A
:10098800AF258A11750883120313A401A4077408FC
:10099800A301A307D52CD52CD52CA301A401D52CB4
:1009A800D52C080083120313A301A0010830A1006D
:1009B8000030A2002208803AFF0080307F02031D29
:1009C800E72C013021020318EA2CEB2CED2C422DE8
:1009D800422D1330F400F40BEF2CF22C8312031386
:1009E800861FF72CF82CFC2CA0010314A00DFE2C5C
:1009F800A001FE2C2308F4000310740CF500750800
:100A0800A3002008031D092D102D2308803EF400A3
:100A18007408A300102D102D861F132D142D102DD2
:100A2800152D2208803AFF0080307F02031D1E2DFD
:100A380002302102031C212D222D2C2D242D242DA2
:100A480083120313861B292D2A2D242D2C2D2C2DA2
:100A5800FF3083120313A1070318A20AFF30A2076D
:100A68002208803AFF0080307F02031D3D2D0130AF
:100A780021020318402D412DED2C422D8312031322
:100A88002308462D080083120313A0000830A10094
:100A98000030A2002208803AFF0080307F02031D48
:100AA800572D0130210203185A2D5B2D5D2DAA2DDB
:100AB800AA2D8312031320080139F4007408A30037
:100AC8002308031D682D6C2DA3010314A30D6D2DA0
:100AD800A3018316031386130430F400F40B722D5C
:100AE80064008312031323187A2D7E2D83160313B3
:100AF8008617812D8316031386132430F400F40B14
:100B0800832D64008316031386170330F400F40B57
:100B18008B2D831203132008F4000310740CF500C6
:100B28007508A000FF30A1070318A20AFF30A2072A
:100B38002208803AFF0080307F02031DA52D013076
:100B480021020318A82DA92D5D2DAA2D0330F4002C
:100B5800F40BAC2D080083120313A001A101750842
:100B680074040319B82DB92DF72DA2010314A20D91
:100B7800C92D01300310F40DF50DFF3E031DBE2DE8
:100B88000130F8007808A207C92DF51FCC2DCD2D0E
:100B9800BD2DCF2DCF2D01300310A00DA10DFF3E8F
:100BA800031DD02D75087702031DDC2D740876020D
:100BB800031CDF2DE02DE82D7408F6027508031CD0
:100BC800F703F7022014E82D01300310F50CF40C9C
:100BD800FF3E031DE92D0130A202031DF42DF52D62
:100BE800CF2DF72DF72D2108F501F5072008F40181
:100BF800F407FE2D080083120313AB01AC012C0887
:100C0800803AFF0080307F02031D0C2E04302B0237
:100C1800031C0F2E102E122E4B2E4B2E8312031355
:100C28002B08103EF8007808AA002B08543E8400D0
:100C380083130008FF3A0319222E232E352EA40110
:100C4800FF30F8007808A5002A088A11BE268A1104
:100C580000308A11C9238A1100308A11C9238A11E8
:100C6800352E013083120313AB070318AC0A00308A
:100C7800AC072C08803AFF0080307F02031D462E07
:100C880004302B02031C492E4A2E122E4B2E08002C
:100C980083120313AB01AC012C08803AFF008030AB
:100CA8007F02031D592E04302B02031C5C2E5D2E7F
:100CB8005F2E952E952E831203132B08103EF800F5
:100CC8007808AA00A401A5012A088A11BE268A115B
:100CD8007914013083120313DA000030DB0000308E
:100CE8008A11C9238A11F800831203132B08543E72
:100CF800840078088313800079100130AB0703184B
:100D0800AC0A0030AC072C08803AFF0080307F0224
:100D1800031D902E04302B02031C932E942E5F2E5D
:100D2800952E08000C140C1C9A2E9B2EB32E013005
:100D3800D8070318D90A0030D9078F018E010C1083
:100D48005B085902031DAA2E5A085802031CAD2E2F
:100D5800AE2EB02EF914B32E1014B32EB32E730882
:100D6800FF0072088A0071088400700E8300FE0E6E
:100D78007E0E0900F70077088A1147258A11063088
:100D8800F600F60BC52E64008312031324088A119B
:100D980047258A110630F600F60BD02E6400831220
:100DA800031325088A1147258A110800831603139F
:100DB8008617F9107910013083120313DA00003016
:100DC800DB00D801D9010800F901D401D501D60109
:0C0DD800D701D801D90183018A1113282A
:02400E00D43F9D
:00000001FF
