:040000008A11112828
:10000800FE00030EF0000408F1000A08F200831253
:1000180003137F08F3008A11582E8A11AA2E83121F
:1000280003179E019F0199019A01763083160313E5
:100038008F0085018312031385018316031386013C
:100048008312031386018A119C268A116630831253
:100058000313B1007730B0002430AF00AF0B322863
:10006800B00B3228B10B322864008A110E268A118F
:100078008A11C1258A11402883120313CE01CF01AA
:100088004F08803AFF0080307F02031D4D2804305E
:100098004E02031C50285128532840284028831218
:1000A80003134E08103EAF002F08D0004E08513EF3
:1000B800840083130008FF3A031963286428792B06
:1000C80079140830D7000030D800F9186C286D284A
:1000D800792B1A30B000F830AF00AF0B7128B00B95
:1000E8007128640083120313A401A50150088A1122
:1000F80080268A1100308A1193238A1183120313F0
:10010800AF002F08B2008928792BF9188C288D2880
:10011800792B1A30B000F830AF00AF0B9128B00B34
:100128009128640083120313A401A5010314A50DEB
:1001380050088A1180268A1100308A1193238A1167
:1001480083120313AF002F08BB000630B000303015
:10015800AF00AF0BAD28B00BAD28640000308A119A
:1001680093238A1183120313AF002F08BC00BD2804
:10017800792BF918C028C128792B1A30B000F8302B
:10018800AF00AF0BC528B00BC5286400831203135A
:10019800A4010230AF002F08A50050088A1180265C
:1001A8008A1100308A1193238A1183120313AF0036
:1001B8002F08BD000630B0003030AF00AF0BE2288A
:1001C800B00BE228640000308A1193238A1183124D
:1001D8000313AF002F08BE00F228792BF918F52871
:1001E800F628792B1A30B000F830AF00AF0BFA2898
:1001F800B00BFA28640083120313A4010330AF0084
:100208002F08A50050088A1180268A1100308A110B
:1002180093238A1183120313AF002F08BF000630FF
:10022800B0003030AF00AF0B1729B00B17296400AE
:1002380000308A1193238A1183120313AF002F0809
:10024800C0002729792BF9182A292B29792B1A304C
:10025800B000F830AF00AF0B2F29B00B2F29640086
:1002680083120313A4010430AF002F08A50050081F
:100278008A1180268A1100308A1193238A118312E9
:100288000313AF002F08C1000630B0003030AF00B4
:10029800AF0B4C29B00B4C29640000308A11932312
:1002A8008A1183120313AF002F08C2005C29792B2F
:1002B800F9185F296029792B1A30B000F830AF009F
:1002C800AF0B6429B00B6429640083120313A401E3
:1002D8000530AF002F08A50050088A1180268A1122
:1002E80000308A1193238A1183120313AF002F0859
:1002F800C3000630B0003030AF00AF0B8129B00B1F
:100308008129640000308A1193238A118312031310
:10031800AF002F08C4009129792BF9189429952941
:10032800792B1A30B000F830AF00AF0B9929B00B19
:100338009929640083120313A4010630AF002F0823
:10034800A50050088A1180268A1100308A1193234B
:100358008A1183120313AF002F08C5000630B000BE
:100368003030AF00AF0BB629B00BB62964000030AF
:100378008A1193238A1183120313AF002F08C60032
:10038800C629792BF918C929CA29792B1A30B0003E
:10039800F830AF00AF0BCE29B00BCE296400831222
:1003A8000313A4010730AF002F08A50050088A11D5
:1003B80080268A1100308A1193238A11831203132D
:1003C800AF002F08C7000630B0003030AF00AF0BC9
:1003D800EB29B00BEB29640000308A1193238A11B2
:1003E80083120313AF002F08C800FB29792BF918D3
:1003F800FE29FF29792B1A30B000F830AF00AF0B77
:10040800032AB00B032A640083120313A4010830E3
:10041800AF002F08A50050088A1180268A110030E5
:100428008A1193238A1183120313AF002F08C9007E
:100438000630B0003030AF00AF0B202AB00B202AB6
:10044800640000308A1193238A1183120313AF00CA
:100458002F08CA00302A792B1A30B000F830AF00C4
:10046800AF0B342AB00B342A6400791001308312A0
:100478000313D7000030D8003D08AF002F08B300A1
:100488004108AF002F08B5004508AF002F08B70096
:100498004908AF002F08B9003E08AF002F08B40084
:1004A8004208AF002F08B6004608AF002F08B80072
:1004B8004A08AF002F08BA0033308A111F248A1166
:1004C80083120313AF002F08CB00CC014B08AF00F9
:1004D8002F08CD00A401A5010314A50DF0308A1141
:1004E80080268A111A3083120313B000F830AF0047
:1004F800AF0B7C2AB00B7C2A640083120313A4017F
:100508004E08AF002F08A500F0308A1180268A1106
:100518001A3083120313B000F830AF00AF0B922AE1
:10052800B00B922A640083120313A4013B08AF00A6
:100538002F08A500F0308A1180268A111A308312FC
:100548000313B000F830AF00AF0BA82AB00BA82AED
:10055800640083120313A4013C08AF002F08A50010
:10056800F0308A1180268A111A3083120313B000E2
:10057800F830AF00AF0BBE2AB00BBE2A640083125E
:100588000313A4013F08AF002F08A500F0308A111B
:1005980080268A111A3083120313B000F830AF0096
:1005A800AF0BD42AB00BD42A640083120313A4011E
:1005B8004008AF002F08A500F0308A1180268A1164
:1005C8001A3083120313B000F830AF00AF0BEA2AD9
:1005D800B00BEA2A640083120313A4014308AF0096
:1005E8002F08A500F0308A1180268A111A3083124C
:1005F8000313B000F830AF00AF0B002BB00B002B8B
:10060800640083120313A4014408AF002F08A50057
:10061800F0308A1180268A111A3083120313B00031
:10062800F830AF00AF0B162BB00B162B64008312FB
:100638000313A4014708AF002F08A500F0308A1162
:1006480080268A111A3083120313B000F830AF00E5
:10065800AF0B2C2BB00B2C2B640083120313A401BB
:100668004808AF002F08A500F0308A1180268A11AB
:100678001A3083120313B000F830AF00AF0B422BCF
:10068800B00B422B640083120313A4014C08AF0083
:100698002F08A500F0308A1180268A111A3083129B
:1006A8000313B000F830AF00AF0B582BB00B582B2A
:1006B800640083120313A4014D08AF002F08A5009E
:1006C800F0308A1180268A111F3083120313B1007B
:1006D8007130B0003B30AF00AF0B702BB00B702BFC
:1006E800B10B702B6400792B792B01308312031323
:1006F800CE070318CF0A0030CF074F08803AFF0013
:1007080080307F02031D8A2B04304E02031C8D2B80
:100718008E2B53284028402840288A1111288312FC
:100728000313A500F910D501D6011010791C9D2BD3
:100738009E2BAC2B8F018E01303090000130831638
:1007480003138C00C0308B00831203131014AC2BDE
:10075800A801A901172CB02B861FB32BB42BB92BDA
:10076800F91CB72BB82BB02BB92BF91CBC2BBD2B04
:10077800C02BFF301E2C1E2C8A1198248A11F600DB
:10078800760883120313A6000630F600F60BCA2B70
:100798006400CE2B83120313861FD32BD42BD92BA3
:1007A800F91CD72BD82BCE2BD92BF91CDC2BDD2B06
:1007B800E02BFF301E2C1E2C8A1198248A11F6007B
:1007C800760883120313A4000630F600F60BEA2B12
:1007D8006400EE2B83120313861FF32BF42BF92BE3
:1007E800F91CF72BF82BEE2BF92BF91CFC2BFD2B06
:1007F800002CFF301E2C1E2C8A1198248A11F6001A
:10080800760883120313A70026082506031D0D2C5E
:100818000E2C172C0130A8000030A9001010270852
:100828001E2C1E2C172C2908280403191C2C1D2CDF
:10083800B02B1E2C080083120313AC00AA01AB01D5
:10084800A801A901AD01AE012E08803AFF00803051
:100858007F02031D312C04302D02031C342C352C4F
:10086800372C792C792C831203132D08A300230726
:100878002C07A4002408840083130008FF3A0319F6
:10088800462C472C652C0130AA070318AB0A003008
:10089800AB072D08A30023072C07A4002408840015
:1008A8000008A5002D08A60026072C07A700270882
:1008B800013E84000008A8070318A90A2508A9070B
:1008C800652C0130AD070318AE0A0030AE072E08BC
:1008D800803AFF0080307F02031D742C04302D0203
:1008E800031C772C782C372C792C831203132B08B4
:1008F8002A040319802C812C942C2B08F501F50768
:100908002A08F401F4072908F701F7072808F6016F
:10091800F6078A1171258A117408972C972C972C41
:100928000030972C972C080083120313A301A00111
:100938000830A1000030A2002208803AFF00803071
:100948007F02031DA92C013021020318AC2CAD2C09
:10095800AF2C042D042D1330F400F40BB12CB42C5F
:1009680083120313861FB92CBA2CBE2CA0010314C2
:10097800A00DC02CA001C02C2308F4000310740C97
:10098800F5007508A3002008031DCB2CD22C2308E2
:10099800803EF4007408A300D22CD22C861FD52CDC
:1009A800D62CD22CD72C2208803AFF0080307F0228
:1009B800031DE02C02302102031CE32CE42CEE2C56
:1009C800E62CE62C83120313861BEB2CEC2CE62C6E
:1009D800EE2CEE2CFF3083120313A1070318A20A92
:1009E800FF30A2072208803AFF0080307F02031DF3
:1009F800FF2C013021020318022D032DAF2C042DEA
:100A0800831203132308082D080083120313A00080
:100A18000830A1000030A2002208803AFF00803090
:100A28007F02031D192D0130210203181C2D1D2DD5
:100A38001F2D6C2D6C2D8312031320080139F4002F
:100A48007408A3002308031D2A2D2E2DA3010314C7
:100A5800A30D2F2DA3018316031386130430F4006E
:100A6800F40B342D64008312031323183C2D402DFE
:100A7800831603138617432D831603138613243016
:100A8800F400F40B452D6400831603138617033016
:100A9800F400F40B4D2D831203132008F400031007
:100AA800740CF5007508A000FF30A1070318A20A0E
:100AB800FF30A2072208803AFF0080307F02031D22
:100AC800672D0130210203186A2D6B2D1F2D6C2D07
:100AD8000330F400F40B6E2D080083120313A001F9
:100AE800A1017508740403197A2D7B2DB92DA20173
:100AF8000314A20D8B2D01300310F40DF50DFF3EEC
:100B0800031D802D0130F8007808A2078B2DF51FF2
:100B18008E2D8F2D7F2D912D912D01300310A00D3D
:100B2800A10DFF3E031D922D75087702031D9E2D12
:100B380074087602031CA12DA22DAA2D7408F602B2
:100B48007508031CF703F7022014AA2D01300310BF
:100B5800F50CF40CFF3E031DAB2D0130A202031D62
:100B6800B62DB72D912DB92DB92D2108F501F50711
:100B78002008F401F407C02D080083120313AB0109
:100B8800AC012C08803AFF0080307F02031DCE2D77
:100B980004302B02031CD12DD22DD42D0D2E0D2E59
:100BA800831203132B08103EF8007808AA002B08BC
:100BB800513E840083130008FF3A0319E42DE52D04
:100BC800F72DA401FF30F8007808A5002A088A113B
:100BD80080268A1100308A1193238A1100308A11E5
:100BE80093238A11F72D013083120313AB070318DF
:100BF800AC0A0030AC072C08803AFF0080307F0236
:100C0800031D082E04302B02031C0B2E0C2ED42D92
:100C18000D2E080083120313AB01AC012C08803A97
:100C2800FF0080307F02031D1B2E04302B02031CA3
:100C38001E2E1F2E212E572E572E831203132B08DC
:100C4800103EF8007808AA00A401A5012A088A1114
:100C580080268A117914013083120313D7000030DB
:100C6800D80000308A1193238A11F80083120313E5
:100C78002B08513E840078088313800079100130D6
:100C8800AB070318AC0A0030AC072C08803AFF0009
:100C980080307F02031D522E04302B02031C552E78
:100CA800562E212E572E08000C140C1C5C2E5D2E7F
:100CB800752E0130D5070318D60A0030D6078F01E4
:100CC8008E010C1058085602031D6C2E5708550249
:100CD800031C6F2E702E722EF914752E1014752E9B
:100CE800752E7308FF0072088A0071088400700E60
:100CF8008300FE0E7E0E0900F70077088A11092589
:100D08008A110630F600F60B872E6400831203134F
:100D180024088A1109258A110630F600F60B922E4E
:100D280064008312031325088A1109258A11080013
:100D3800831603138617F9107910013083120313F1
:100D4800D7000030D800D501D6010800F901D1013B
:100D5800D201D301D401D501D60183018A11132808
:02400E00D43F9D
:00000001FF
