:040000008A11112828
:10000800FE00030EF0000408F1000A08F200831253
:1000180003137F08F3008A11662E8A11B82E831203
:1000280003179E019F0199019A01763083160313E5
:100038008F0085018312031385018316031386013C
:100048008312031386018A11AA268A116630831245
:100058000313B3007730B2002430B100B10B32285B
:10006800B20B3228B30B322864008A111C268A117D
:100078008A11CF258A11402883120313D101D20196
:100088005208803AFF0080307F02031D4D2804305B
:100098005102031C50285128532840284028831215
:1000A80003135108103EB1003108D3005108543EE3
:1000B800840083130008FF3A0319632864287F2B00
:1000C80079140830DA000030DB00F9186C286D2844
:1000D8007F2B1A30B200F830B100B10B7128B20B87
:1000E8007128640083120313A401A50153088A111F
:1000F8008E268A1100308A1199238A1183120313DC
:10010800B1003108B40089287F2BF9188C288D2874
:100118007F2B1A30B200F830B100B10B9128B20B26
:100128009128640083120313A401A5010314A50DEB
:1001380053088A118E268A1100308A1199238A1150
:1001480083120313B1003108BD000630B20030300D
:10015800B100B10BAD28B20BAD28640000308A1194
:1001680099238A1183120313B1003108BE00BD28F8
:100178007F2BF918C028C1287F2B1A30B200F8301D
:10018800B100B10BC528B20BC52864008312031354
:10019800A4010230B1003108A50053088A118E2647
:1001A8008A1100308A1199238A1183120313B1002E
:1001B8003108BF000630B2003030B100B10BE22880
:1001C800B20BE228640000308A1199238A11831245
:1001D8000313B1003108C000F2287F2BF918F52865
:1001E800F6287F2B1A30B200F830B100B10BFA288C
:1001F800B20BFA28640083120313A4010330B10080
:100208003108A50053088A118E268A1100308A11F8
:1002180099238A1183120313B1003108C1000630F3
:10022800B2003030B100B10B1729B20B17296400A6
:1002380000308A1199238A1183120313B1003108FF
:10024800C20027297F2BF9182A292B297F2B1A303E
:10025800B200F830B100B10B2F29B20B2F2964007E
:1002680083120313A4010430B1003108A500530818
:100278008A118E268A1100308A1199238A118312D5
:100288000313B1003108C3000630B2003030B100AA
:10029800B10B4C29B20B4C29640000308A11992308
:1002A8008A1183120313B1003108C4005C297F2B23
:1002B800F9185F2960297F2B1A30B200F830B10095
:1002C800B10B6429B20B6429640083120313A401DF
:1002D8000530B1003108A50053088A118E268A110D
:1002E80000308A1199238A1183120313B10031084F
:1002F800C5000630B2003030B100B10B8129B20B15
:100308008129640000308A1199238A11831203130A
:10031800B1003108C60091297F2BF9189429952935
:100328007F2B1A30B200F830B100B10B9929B20B0B
:100338009929640083120313A4010630B10031081F
:10034800A50053088A118E268A1100308A11992334
:100358008A1183120313B1003108C7000630B200B6
:100368003030B100B10BB629B20BB62964000030A9
:100378008A1199238A1183120313B1003108C80026
:10038800C6297F2BF918C929CA297F2B1A30B20030
:10039800F830B100B10BCE29B20BCE29640083121C
:1003A8000313A4010730B1003108A50053088A11CE
:1003B8008E268A1100308A1199238A118312031319
:1003C800B1003108C9000630B2003030B100B10BBD
:1003D800EB29B20BEB29640000308A1199238A11AA
:1003E80083120313B1003108CA00FB297F2BF918C7
:1003F800FE29FF297F2B1A30B200F830B100B10B6B
:10040800032AB20B032A640083120313A4010830E1
:10041800B1003108A50053088A118E268A110030D0
:100428008A1199238A1183120313B1003108CB0072
:100438000630B2003030B100B10B202AB20B202AAE
:10044800640000308A1199238A1183120313B100C2
:100458003108CC00302A7F2B1A30B200F830B100B6
:10046800B10B342AB20B342A64007910013083129C
:100478000313DA000030DB003F08B1003108B50093
:100488004308B1003108B7004708B1003108B90086
:100498004B08B1003108BB004008B1003108B60074
:1004A8004408B1003108B8004808B1003108BA0062
:1004B8004C08B1003108BC0035308A1125248A1156
:1004C800831203132408D001D0072308CF01CF07D4
:1004D8005008B1003108CD004F08B1003108CE00F6
:1004E800A401A5010314A50DF0308A118E268A11E6
:1004F8001A3083120313B200F830B100B10B822A0C
:10050800B20B822A640083120313A4015108B100BC
:100518003108A500F0308A118E268A111A3083120C
:100528000313B200F830B100B10B982AB20B982A25
:10053800640083120313A4013D08B1003108A5002B
:10054800F0308A118E268A111A3083120313B200F2
:10055800F830B100B10BAE2AB20BAE2A6400831298
:100568000313A4013E08B1003108A500F0308A1138
:100578008E268A111A3083120313B200F830B100A4
:10058800B10BC42AB20BC42A640083120313A4015A
:100598004108B1003108A500F0308A118E268A1171
:1005A8001A3083120313B200F830B100B10BDA2A03
:1005B800B20BDA2A640083120313A4014208B100C3
:1005C8003108A500F0308A118E268A111A3083125C
:1005D8000313B200F830B100B10BF02AB20BF02AC5
:1005E800640083120313A4014508B1003108A50073
:1005F800F0308A118E268A111A3083120313B20042
:10060800F830B100B10B062BB20B062B6400831235
:100618000313A4014608B1003108A500F0308A117F
:100628008E268A111A3083120313B200F830B100F3
:10063800B10B1C2BB20B1C2B640083120313A401F7
:100648004908B1003108A500F0308A118E268A11B8
:100658001A3083120313B200F830B100B10B322BF9
:10066800B20B322B640083120313A4014A08B100B1
:100678003108A500F0308A118E268A111A308312AB
:100688000313B200F830B100B10B482BB20B482B62
:10069800640083120313A4014D08B1003108A500BA
:1006A800F0308A118E268A111A3083120313B20091
:1006B800F830B100B10B5E2BB20B5E2B64008312D5
:1006C8000313A4014E08B1003108A500F0308A11C7
:1006D8008E268A111F3083120313B3007130B200C3
:1006E8003B30B100B10B762BB20B762BB30B762BCC
:1006F80064007F2B7F2B013083120313D10703186B
:10070800D20A0030D2075208803AFF0080307F02B8
:10071800031D902B04305102031C932B942B532858
:100728004028402840288A11112883120313A50065
:10073800F910D801D9011010791CA32BA42BB22BC6
:100748008F018E01303090000130831603138C0026
:10075800C0308B00831203131014B22BA801A90117
:100768001D2CB62B861FB92BBA2BBF2BF91CBD2B02
:10077800BE2BB62BBF2BF91CC22BC32BC62BFF30AD
:10078800242C242C8A11A6248A11F60076088312B8
:100798000313A6000630F600F60BD02B6400D42B0A
:1007A80083120313861FD92BDA2BDF2BF91CDD2BC1
:1007B800DE2BD42BDF2BF91CE22BE32BE62BFF30AF
:1007C800242C242C8A11A6248A11F6007608831278
:1007D8000313A4000630F600F60BF02B6400F42B8C
:1007E80083120313861FF92BFA2BFF2BF91CFD2B01
:1007F800FE2BF42BFF2BF91C022C032C062CFF30AC
:10080800242C242C8A11A6248A11F6007608831237
:100818000313A70026082506031D132C142C1D2CD2
:100828000130A8000030A90010102708242C242C1F
:100838001D2C290828040319222C232CB62B242C20
:10084800080083120313AE00AC01AD01AA01AB018D
:10085800AF01B0013008803AFF0080307F02031DED
:10086800372C04302F02031C3A2C3B2C3D2C7F2CB8
:100878007F2C831203132F08A50025072E07A60037
:100888002608840083130008FF3A03194C2C4D2CCA
:100898006B2C0130AC070318AD0A0030AD072F08E8
:1008A800A50025072E07A600260884000008A70033
:1008B8002F08A80028072E07A9002908013E840050
:1008C8000008AA070318AB0A2708AB076B2C0130EE
:1008D800AF070318B00A0030B0073008803AFF00AD
:1008E80080307F02031D7A2C04302F02031C7D2CDC
:1008F8007E2C3D2C7F2C831203132D082C04031906
:10090800862C872CA12C2D08F501F5072C08F4015D
:10091800F4072B08F701F7072A08F601F6078A11EA
:100928007F258A11750883120313A401A40774088C
:10093800A301A307A52CA52CA52CA301A401A52CD4
:10094800A52C080083120313A301A0010830A100FD
:100958000030A2002208803AFF0080307F02031D89
:10096800B72C013021020318BA2CBB2CBD2C122D38
:10097800122D1330F400F40BBF2CC22C8312031376
:10098800861FC72CC82CCC2CA0010314A00DCE2C7C
:10099800A001CE2C2308F4000310740CF500750890
:1009A800A3002008031DD92CE02C2308803EF40066
:1009B8007408A300E02CE02C861FE32CE42CE02C28
:1009C800E52C2208803AFF0080307F02031DEE2CC0
:1009D80002302102031CF12CF22CFC2CF42CF42CF8
:1009E80083120313861BF92CFA2CF42CFC2CFC2CF8
:1009F800FF3083120313A1070318A20AFF30A207CE
:100A08002208803AFF0080307F02031D0D2D01303F
:100A180021020318102D112DBD2C122D8312031342
:100A28002308162D080083120313A0000830A10024
:100A38000030A2002208803AFF0080307F02031DA8
:100A4800272D0130210203182A2D2B2D2D2D7A2D2B
:100A58007A2D8312031320080139F4007408A300C7
:100A68002308031D382D3C2DA3010314A30D3D2D90
:100A7800A3018316031386130430F400F40B422DEC
:100A880064008312031323184A2D4E2D8316031373
:100A98008617512D8316031386132430F400F40BA4
:100AA800532D64008316031386170330F400F40BE8
:100AB8005B2D831203132008F4000310740CF50057
:100AC8007508A000FF30A1070318A20AFF30A2078B
:100AD8002208803AFF0080307F02031D752D013007
:100AE80021020318782D792D2D2D7A2D0330F4004D
:100AF800F40B7C2D080083120313A001A1017508D3
:100B080074040319882D892DC72DA2010314A20D81
:100B1800992D01300310F40DF50DFF3E031D8E2DA8
:100B28000130F8007808A207992DF51F9C2D9D2DFE
:100B38008D2D9F2D9F2D01300310A00DA10DFF3E7F
:100B4800031DA02D75087702031DAC2D74087602CD
:100B5800031CAF2DB02DB82D7408F6027508031CC0
:100B6800F703F7022014B82D01300310F50CF40C2C
:100B7800FF3E031DB92D0130A202031DC42DC52D52
:100B88009F2DC72DC72D2108F501F5072008F40171
:100B9800F407CE2D080083120313AB01AC012C0817
:100BA800803AFF0080307F02031DDC2D04302B02C9
:100BB800031CDF2DE02DE22D1B2E1B2E83120313A9
:100BC8002B08103EF8007808AA002B08543E840031
:100BD80083130008FF3A0319F22DF32D052EA40103
:100BE800FF30F8007808A5002A088A118E268A1195
:100BF80000308A1199238A1100308A1199238A11A9
:100C0800052E013083120313AB070318AC0A00301A
:100C1800AC072C08803AFF0080307F02031D162E97
:100C280004302B02031C192E1A2EE22D1B2E08004D
:100C380083120313AB01AC012C08803AFF0080300B
:100C48007F02031D292E04302B02031C2C2E2D2E6F
:100C58002F2E652E652E831203132B08103EF800E5
:100C68007808AA00A401A5012A088A118E268A11EB
:100C78007914013083120313DA000030DB000030EE
:100C88008A1199238A11F800831203132B08543E02
:100C9800840078088313800079100130AB070318AB
:100CA800AC0A0030AC072C08803AFF0080307F0285
:100CB800031D602E04302B02031C632E642E2F2E7E
:100CC800652E08000C140C1C6A2E6B2E832E013026
:100CD800D8070318D90A0030D9078F018E010C10E4
:100CE8005B085902031D7A2E5A085802031C7D2EF0
:100CF8007E2E802EF914832E1014832E832E7308D3
:100D0800FF0072088A0071088400700E8300FE0ECE
:100D18007E0E0900F70077088A1117258A11063018
:100D2800F600F60B952E64008312031324088A112B
:100D380017258A110630F600F60BA02E64008312E0
:100D4800031325088A1117258A110800831603132F
:100D58008617F9107910013083120313DA00003076
:100D6800DB00D801D9010800F901D401D501D60169
:0C0D7800D701D801D90183018A1113288A
:02400E00D43F9D
:00000001FF
