:040000008A11112828
:10000800FE00030EF0000408F1000A08F200831253
:1000180003137F08F3008A15B82D8A15AA2D7630A8
:10002800831603138F00831203179E019F01831207
:1000380003138601831603138601831203138701B2
:100048000F308316031387008A15A6258A110B30F3
:1000580083120313C0002630BF006630BE00BE0BFB
:100068003328BF0B3328C00B33283A2879103C2893
:1000780010308A11AC278A1183120313BE003E0880
:10008800C100C108031D49284A285F281A30BF004B
:10009800F830BE00BE0B4E28BF0B4E28640010304F
:1000A80083120313BE003E08A400A50100308A1580
:1000B800CE258A113C28831203134108013A031DF7
:1000C8006628672875284608BE00BF013E08B500A7
:1000D8003F08B600B7010314B70D8A1111238A111E
:1000E8003C28831203134108023A031D7C287D280B
:1000F8008B284608BE00BF013E08B5003F08B60081
:10010800B7010314B70D8A113A248A113C288312C7
:1001180003134108033A031D92289328A22847088D
:10012800BE00BF013E08B5003F08B6000230C0005F
:100138004008B7008A1111238A113C28831203133F
:100148004108043A031DA928AA28B9284708BE006F
:10015800BF013E08B5003F08B6000230C0004008A5
:10016800B7008A113A248A113C28831203134108E4
:10017800053A031DC028C128D0284808BE00BF0181
:100188003E08B5003F08B6000430C0004008B7007C
:100198008A1111238A113C28831203134108063A55
:1001A800031DD728D828E7284808BE00BF013E0805
:1001B800B5003F08B6000430C0004008B7008A11F7
:1001C8003A248A113C28831203134108073A031D75
:1001D800EE28EF28FE284908BE00BF013E08B500FA
:1001E8003F08B6000830C0004008B7008A11112344
:1001F8008A113C28831203134108083A031D052974
:10020800062915294908BE00BF013E08B5003F0868
:10021800B6000830C0004008B7008A113A248A1195
:100228003C28831203134108FD3A031D1C291D298C
:100238004B291A30BF00F830BE00BE0B2129BF0B76
:1002480021296400103083120313BE003E08A40065
:10025800A50100308A15CE258A111A30831203139E
:10026800BF00F830BE00BE0B3729BF0B372964002A
:10027800103083120313BE003E08A4000430BF00F0
:100288003F08A50000308A15CE258A113C28831224
:1002980003134108FF3A031D5229532957298A1588
:1002A800AB278A113C281A3083120313BF00F83099
:1002B800BE00BE0B5D29BF0B5D29640010308312A0
:1002C8000313BE003E08A400FF30BF003F08A5008E
:1002D80000308A15CE258A111A3083120313BF0005
:1002E800F830BE00BE0B7629BF0B762964001030AB
:1002F80083120313BE003E08A400FD30BF003F0870
:10030800A50000308A15CE258A113C283C283C28B7
:100318003C283C283C283C283C283C283C283C28B5
:100328003C283C288A1111280F30831603138700B4
:10033800831203134309070587001530A2004B30C9
:10034800A100D130A000A00BA729A10BA729A20BBF
:10035800A729640083160313870183120313430933
:10036800070587000630A1003030A000A00BBA298D
:10037800A10BBA2964000F30831603138700831278
:100388000313101079108F018E0130309000013066
:10039800831603138C00C0308B00831203131014D0
:1003A800D629D629430807050319DB29DC29E429BE
:1003B800791CDF29E029D629E429E429E429E4295C
:1003C80043080705031DE929EA29F229791CED29C3
:1003D800EE29E429F229F229F229F229430807052E
:1003E8000319F729F829FD29791CFB29FC29F22989
:1003F800FD2910107918012A022A102BA801A90139
:100408002908803AFF0080307F02031D0D2A08303A
:100418002802031C102A112A132A2D2A2D2A8A158C
:10042800EA258A1183120313C40D0130A8070318A3
:10043800A90A0030A9072908803AFF0080307F0206
:10044800031D282A08302802031C2B2A2C2A132AC9
:100458002D2A83120313AA01AB012B08803AFF004F
:1004680080307F02031D3A2A08302A02031C3D2AE5
:100478003E2A402A5A2A5A2A8A15EA258A118312BC
:100488000313C50D0130AA070318AB0A0030AB07E8
:100498002B08803AFF0080307F02031D552A083060
:1004A8002A02031C582A592A402A5A2A831203135B
:1004B800AC01AD012D08803AFF0080307F02031D9A
:1004C800672A08302C02031C6A2A6B2A6D2A872A9D
:1004D800872A8A15EA258A1183120313CA0D013067
:1004E800AC070318AD0A0030AD072D08803AFF00AD
:1004F80080307F02031D822A08302C02031C852AC3
:10050800862A6D2A872A83120313AE01AF012F08AA
:10051800803AFF0080307F02031D942A08302E02A3
:10052800031C972A982A9A2AB42AB42A8A15EA25F3
:100538008A1183120313CB0D0130AE070318AF0ADB
:100548000030AF072F08803AFF0080307F02031D7C
:10055800AF2A08302E02031CB22AB32A9A2AB42AD8
:1005680083120313B001B1013108803AFF008030D3
:100578007F02031DC12A08303002031CC42AC52A81
:10058800C72AE12AE12A8A15EA258A118312031368
:10059800C20D0130B0070318B10A0030B1073108A5
:1005A800803AFF0080307F02031DDC2A08303002C9
:1005B800031CDF2AE02AC72AE12A8312031344080E
:1005C8004507A000A101A10D4A082007A20000309C
:1005D800031801302107A3004B082207A4000030AC
:1005E800031801302307A500FF302405A6000030BA
:1005F8002505A7004208A000A10127082106031D20
:10060800072B26082006031D0A2B0B2B0D2BF91090
:10061800102BF914102B102B080083120313360823
:100628003504031D182B192B4A2B1A30B900F83042
:10063800B800B80B1D2BB90B1D2B640010308312AA
:100648000313B8003808A400FF30B9003908A50022
:1006580000308A15CE258A111A3083120313B90087
:10066800F830B800B80B362BB90B362B64001030B5
:1006780083120313B8003808A400FB30B900390806
:10068800A50000308A15CE258A11392C0130831235
:10069800031335063604031D522B532BA72B37089B
:1006A8008A1577268A11760883120313BB01BB07C4
:1006B8007508BA01BA07FF303B06031D652BFE30EB
:1006C8003A06031D682B692B762B37088A1577267F
:1006D8008A11760883120313BB01BB077508BA0198
:1006E800BA07762B1A30B900F830B800B80B7A2B55
:1006F800B90B7A2B6400103083120313B800380842
:10070800A4003B08B9003908A50000308A15CE2599
:100718008A111A3083120313B900F830B800B80BE5
:10072800932BB90B932B6400103083120313B8007A
:100738003808A4003A08B9003908A50000308A151D
:10074800CE258A11392C023083120313350636045C
:10075800031DAF2BB02B042C37088A1140258A11B2
:10076800831203132508BD01BD072408BC01BC077B
:10077800FF303D06031DC22BFE303C06031DC52B72
:10078800C62BD32B37088A1140258A1183120313ED
:100798002508BD01BD072408BC01BC07D32B1A30AE
:1007A800B900F830B800B80BD72BB90BD72B6400B9
:1007B800103083120313B8003808A4003D08B900AC
:1007C8003908A50000308A15CE258A111A308312FF
:1007D8000313B900F830B800B80BF02BB90BF02BA5
:1007E8006400103083120313B8003808A4003C08D2
:1007F800B9003908A50000308A15CE258A11392C90
:100808001A3083120313B900F830B800B80B0A2C59
:10081800B90B0A2C6400103083120313B80038088F
:10082800A400FF30B9003908A50000308A15CE258C
:100838008A111A3083120313B900F830B800B80BC4
:10084800232CB90B232C6400103083120313B80037
:100858003808A400FA30B9003908A50000308A1514
:10086800CE258A11392C392C392C08008312031310
:1008780036083504031D412C422C732C1A30B9005C
:10088800F830B800B80B462CB90B462C6400103071
:1008980083120313B8003808A400FF30B9003908E0
:1008A800A50000308A15CE258A111A308312031349
:1008B800B900F830B800B80B5F2CB90B5F2C640096
:1008C800103083120313B8003808A400FB30B900B5
:1008D8003908A50000308A15CE258A113F2D013030
:1008E8008312031335063604031D7B2C7C2CD02C75
:1008F80037088A15BF268A11760883120313BB01AD
:10090800BB077508BA01BA07FF303B06031D8E2CDA
:10091800FE303A06031D912C922C9F2C37088A151D
:10092800BF268A11760883120313BB01BB0775081B
:10093800BA01BA079F2C1A30B900F830B800B80BC2
:10094800A32CB90BA32C6400103083120313B80036
:100958003808A4003B08B9003908A50000308A15FA
:10096800CE258A111A3083120313B900F830B80063
:10097800B80BBC2CB90BBC2C6400103083120313C9
:10098800B8003808A4003A08B9003908A5000030B2
:100998008A15CE258A113F2D02308312031335069E
:1009A8003604031DD82CD92C0A2D1A30B900F8307A
:1009B800B800B80BDD2CB90BDD2C640010308312A5
:1009C8000313B8003808A400FF30B9003908A5009F
:1009D80000308A15CE258A111A3083120313B90004
:1009E800F830B800B80BF62CB90BF62C64001030B0
:1009F80083120313B8003808A400FC30B900390882
:100A0800A50000308A15CE258A113F2D1A30831291
:100A18000313B900F830B800B80B102DB90B102D1E
:100A28006400103083120313B8003808A400FF30A4
:100A3800B9003908A50000308A15CE258A111A3068
:100A480083120313B900F830B800B80B292DB90B7D
:100A5800292D6400103083120313B8003808A4004D
:100A6800FA30B9003908A50000308A15CE258A1158
:100A78003F2D3F2D3F2D080083120313A90029089D
:100A8800A6002608C3008A1557278A1179194D2D03
:100A98004E2DEA2DCC308A11D9268A1144308A117C
:100AA800D9268A110B3083120313A8002630A70019
:100AB8006630A600A60B5E2DA70B5E2DA80B5E2D3B
:100AC800652D8A1557278A11CC308A11D9268A11A3
:100AD800BE308A11D9268A118A11F3258A11831208
:100AE8000313A600A7012608AC002708AD008A1149
:100AF800F3258A1183120313A600A7012608A7006D
:100B0800A6012608AC070318AD0A2708AD072D086B
:100B1800A7002C08A60004300310A70CA60CFF3E63
:100B2800031D902D2608F4002708F5000A30F6006A
:100B38000030F7008A1547268A11750883120313B7
:100B4800AB01AB077408AA01AA070F302C05AE0049
:100B580000302D05AF002F08F501F5072E08F40128
:100B6800F4077130F6000230F7008A1547268A111B
:100B7800750883120313AF01AF077408AE01AE07FF
:100B8800E830F4000330F5002F08F701F7072E08C6
:100B9800F601F6078A1507278A11750883120313C9
:100BA800AF01AF077408AE01AE072E082A07AC00E4
:100BB8002F0803182F0A2B07AD002D08A501A5073C
:100BC8002C08A401A407F22DF22DF22DFE30831279
:100BD8000313A400FF30A500F22DF22D08008312A4
:100BE8000313A301A0010830A1000030A2002208CD
:100BF800803AFF0080307F02031D042E013021025D
:100C08000318072E082E0A2E5F2E5F2E8316031355
:100C180087010330F400F40B0F2E122E83160313F2
:100C28000708831203134304831603138700033052
:100C3800F400F40B1D2E202E83120313070843051E
:100C48000319272E282E2C2EA0010314A00D2E2EBA
:100C5800A0012E2E2130F400F40B302E8312031342
:100C68002308F4000310740CF5007508A30020088D
:100C7800031D3F2E452E2308803EF4007408A30070
:100C8800452E0330F400F40B472EFF308312031374
:100C9800A1070318A20AFF30A2072208803AFF0022
:100CA80080307F02031D5A2E0130210203185D2E69
:100CB8005E2E0A2E5F2E0330F400F40B612E831291
:100CC80003132308672E080083120313A301A0014E
:100CD8000830A1000030A2002208803AFF008030CE
:100CE8007F02031D792E0130210203187C2E7D2EF0
:100CF8007F2ED42ED42E1330F400F40B812E842EA4
:100D080083120313861F892E8A2E8E2EA0010314A8
:100D1800A00D902EA001902E2308F4000310740C4F
:100D2800F5007508A3002008031D9B2EA22E23089A
:100D3800803EF4007408A300A22EA22E861FA52EC2
:100D4800A62EA22EA72E2208803AFF0080307F020E
:100D5800031DB02E02302102031CB32EB42EBE2E6A
:100D6800B62EB62E83120313861BBB2EBC2EB62EB0
:100D7800BE2EBE2EFF3083120313A1070318A20A4A
:100D8800FF30A2072208803AFF0080307F02031D4F
:100D9800CF2E013021020318D22ED32E7F2ED42E2F
:100DA800831203132308D82E080083120313A0000C
:100DB8000830A1000030A2002208803AFF008030ED
:100DC8007F02031DE92E013021020318EC2EED2EBF
:100DD800EF2E3F2F3F2F8312031320080139F40011
:100DE8007408A3002308031DFA2EFF2EFF30F40019
:100DF8007408A300012FA301012F83160313870191
:100E08000430F400F40B062F640083120313230844
:100E180043058316031387002430F400F40B122FC4
:100E2800640083160313070883120313430483160D
:100E3800031387000330F400F40B202F83120313ED
:100E48002008F4000310740CF5007508A000FF30AA
:100E5800A1070318A20AFF30A2072208803AFF0060
:100E680080307F02031D3A2F0130210203183D2FE5
:100E78003E2FEF2E3F2F0330F400F40B412F0800D4
:100E880083120313A0000830A1000030A20022083A
:100E9800803AFF0080307F02031D542F0130210269
:100EA8000318572F582F5A2FA72FA72F8312031332
:100EB80020080139F4007408A3002308031D652FD6
:100EC800692FA3010314A30D6A2FA301831603132B
:100ED80086130430F400F40B6F2F6400831203139D
:100EE8002318772F7B2F8316031386177E2F8316DD
:100EF800031386132430F400F40B802F6400831648
:100F0800031386170330F400F40B882F831203139E
:100F18002008F4000310740CF5007508A000FF30D9
:100F2800A1070318A20AFF30A2072208803AFF008F
:100F380080307F02031DA22F013021020318A52F44
:100F4800A62F5A2FA72F0330F400F40BA92F08005F
:100F580083120313A500A801A901F82FB32F861B3C
:100F6800B62FB72FB32FB82F8A1168268A11F6002B
:100F7800760883120313A6000630F600F60BC22F7C
:100F88006400C62F83120313861BCB2FCC2FC62FCA
:100F9800CD2F8A1168268A11F6007608831203136A
:100FA800A4000630F600F60BD72F6400DB2F83125F
:100FB8000313861BE02FE12FDB2FE22F8A1168260F
:100FC8008A11F600760883120313A700260825065F
:100FD800031DEF2FF02FF82F0130A8000030A900D3
:100FE8002708FF2FFF2FF82F290828040319FD2FA2
:080FF800FE2FB32FFF2F0800AC
:101B4C008316031386170800F901C201C301C401EF
:101B5C00C501C601C701C801C901CA01CB01830176
:101B6C008A1113280C140C1CBC2DBD2DC32D8F01F8
:101B7C008E01791479150C10C32D7308FF007208AF
:101B8C008A0071088400700E8300FE0E7E0E090020
:101B9C00F70077088A1144278A150630F600F60BF1
:101BAC00D52D64008312031324088A1144278A1547
:101BBC000630F600F60BE02D6400831203132508A3
:101BCC008A1144278A150800EC2DEC2D831203137F
:101BDC00430807050319F32DF42DEC2DF52D1330C7
:101BEC00F400F40BF72DFA2D8312031343080705A9
:101BFC000319012E022E042EF915082EF911082EA8
:101C0C00082E082E43080705031D0D2E0E2E082E38
:101C1C00F919112E122E142E0310172E0314172E31
:101C2C00172E080083120313B50035088A15772682
:101C3C008A15FF307606031D252EFE307506031D12
:101C4C00282E292E432E8312031335088A11402582
:101C5C008A15FF30831203132506031D372EFE3021
:101C6C002406031D3A2E3B2E3F2E0030462E462EC8
:101C7C00462E0230462E462E462E0130462E462E3D
:101C8C00080083120313A001A1014C2E741C4F2ECB
:101C9C00502E582E760883120313A0070318A10A9E
:101CAC007708A10701300310F60DF70DFF3E031D59
:101CBC00592E01300310F50CF40CFF3E031D602E61
:101CCC0075087404031D6B2E6C2E4C2E6D2E831216
:101CDC0003132108F501F5072008F401F407762E0B
:101CEC00080083120313B2003208F7007708C30010
:101CFC008A1198218A15F918842E852EA72E791809
:101D0C00882E892EA72E831203134B08F700F80197
:101D1C007708B3007808B4004A08F700F801770890
:101D2C00F800F7017708B3070318B40A7808B4076A
:101D3C003408F601F6073308F501F507BE2EBE2E62
:101D4C00BE2EF91CAA2EAB2EB22EFF30F500FF30A2
:101D5C00F600BE2EBE2EBE2E791CB52EB62EBE2E75
:101D6C00FE30F500FF30F600BE2EBE2EBE2EBE2E6F
:101D7C00080083120313B2003208F7007708C3007F
:101D8C008A1198218A15F918CC2ECD2EEF2E7918A0
:101D9C00D02ED12EEF2E831203134508F700F80135
:101DAC007708B3007808B4004408F700F801770806
:101DBC00F800F7017708B3070318B40A7808B407DA
:101DCC003408F601F6073308F501F507062F062F40
:101DDC00062FF91CF22EF32EFA2EFF30F500FF30F1
:101DEC00F600062F062F062F791CFD2EFE2E062F31
:101DFC00FE30F500FF30F600062F062F062F062FBB
:101E0C00080083120313A001A101750874040319BF
:101E1C00102F112F4F2FA2010314A20D212F0130CF
:101E2C000310F40DF50DFF3E031D162F0130F800C5
:101E3C007808A207212FF51F242F252F152F272FC8
:101E4C00272F01300310A00DA10DFF3E031D282FDD
:101E5C0075087702031D342F74087602031C372F84
:101E6C00382F402F7408F6027508031CF703F7028D
:101E7C002014402F01300310F50CF40CFF3E031D11
:101E8C00412F0130A202031D4C2F4D2F272F4F2F16
:101E9C004F2F2108F501F5072008F401F407562F00
:101EAC0008008316031307088312031343048316D5
:101EBC0003138700831203138701101079118F010C
:101ECC008E01303090000130831603138C00C0302B
:101EDC008B008312031310148316031387018930AC
:101EEC00F400782F792FF40B772F83160313070840
:101EFC008312031343048316031387002130F40069
:101F0C00F40B862F8A2F8A2F83120313430807059D
:101F1C000319912F922F9A2F791D952F962F8A2F77
:101F2C009A2F9A2F9A2F9A2F43080705031D9F2F3C
:101F3C00A02FA52F791DA32FA42F9A2FA52F1010FA
:101F4C000330F400F40BA82F080001308A15182672
:101F5C008A1583120313B6003608C60002308A15A0
:101F6C0018268A1583120313B6003608C7000430EE
:101F7C008A1518268A1583120313B6003608C80072
:101F8C0008308A1518268A1583120313B6003608F2
:101F9C00C9001A30B700F830B600B60BD32FB70B08
:101FAC00D32F6400103083120313B6003608A4003C
:101FBC00FF30B7003708A50000308A15CE258A15EA
:101FCC001A3083120313B700F830B600B60BEC2F9F
:101FDC00B70BEC2F6400103083120313B6003608D5
:101FEC00A400F930B7003708A50000308A15CE25BB
:041FFC008A1508003A
:02400E00F7FFBA
:00000001FF
