:100000008A115D2B00308A000408840A82070034BC
:1000100049346E3469347434693461346C3469340D
:10002000733469346E3467342E342E342E340034F5
:10003000203420342034203443346F347334793402
:1000400020344C3469347A3461347234643400348A
:1000500043346F346E34743472346F346C346C34B3
:100060006534723420340034483475346D34693466
:100070006434693474347934203400342034543492
:100080006D347034323420340034203454346D34C0
:10009000703434342034003454346D34703431349A
:1000A0002034003454346D3470343334203400340C
:100660000134831603138617080064008001840A8E
:100670000406031900340406362BF6008312031314
:10068000051576088A11BA238A110800F60083122C
:10069000031305117608803E8A11BA238A110800D7
:1006A000F0308A11F5238A1183120313CE004E080D
:1006B000DE008A1191268A110800831320308400FD
:1006C00049308A1135238A118A1130238A11DE00BC
:1006D00083018A11EE2C01308316031381000D3043
:1006E000831203138100742B0B1D772B782B742B33
:1006F0000B11080083120313051101308A11BA236C
:100700008A110230F0000030F1008A11A1238A1111
:100710000800F300F201731C8E2B8F2B942B7008B2
:10072000F1007108F207942B0310F00D0310F30C85
:10073000F308031D9C2B9D2B8B2B9E2B7208A02B4B
:100740000800F201F301AE2B8A116B238A110130EC
:10075000F2070318F30A0030F307AE2B7308710297
:10076000031DB42B720870020318B72BB82BA42BEF
:10077000B92B0800F5000130F0000030F1008A11BB
:10078000A1238A117508F40004300310F40CFF3E15
:10079000031DC52B74080F398312031387008514BA
:1007A000851075080F398700851485100800F7003B
:1007B000831203130515E92B770884008A110220A0
:1007C0008A118A11BA238A110130F6007608F707D8
:1007D000E92B770884008A1102208A110038031D52
:1007E000F22BF32BDC2BF42B0800F800F901FA01B3
:1007F0003B2CFA2B83120313861BFF2B002CFA2BA6
:10080000012C8A11B2258A11F6007608FB00063009
:10081000F600F60B092C64000D2C83120313861BC3
:10082000122C132C0D2C142C8A11B2258A11F600CF
:100830007608F7000630F600F60B1C2C6400202C1E
:1008400083120313861B252C262C202C272C8A117F
:10085000B2258A11F6007608FC007B087806031D95
:10086000322C332C3B2C0130F9000030FA007C088C
:10087000422C422C3B2C7A0879040319402C412C41
:10088000FA2B422C0800831203179E010330F60056
:100890007608F7008316031385018701831203137B
:1008A0000511851005120F30F0000030F1008A119B
:1008B000A1238A11770883120313870085148510FA
:1008C0000A30F0000030F1008A11A1238A1183124E
:1008D0000313851485100A30F0000030F1008A11EE
:1008E000A1238A1183120313851485100A30F000A6
:1008F0000030F1008A11A1238A1102308312031300
:1009000087008514851028308A11BA238A110F3088
:100910008A11BA238A118A117A238A1106308A1120
:10092000BA238A1108000A30F9000030FA00643056
:10093000F0000030F100831203134C08F301F307B9
:100940004B08F201F2078A111D268A117108FC0179
:10095000FC077008FB01FB078A114A258A117908F8
:10096000303E8A113D238A110A30F9000030FA0026
:100970000A30F0000030F100831203134C08F30139
:10098000F3074B08F201F2078A111D268A1171083C
:10099000FC01FC077008FB01FB078A114A258A113C
:1009A0007908303E8A113D238A110F308A11D723EE
:1009B0008A110A30F9000030FA00831203134C0840
:1009C000FC01FC074B08FB01FB078A114A258A1131
:1009D0007908303E8A113D238A11080083120317DB
:1009E0009E019F0199019A017630831603138F00AF
:1009F0008501860187018312031386018A1143242E
:100A00008A118A1131238A118A117A238A110030BE
:100A10008A1146238A1111308A11D7238A11403056
:100A20008A1146238A1101308A11D7238A110B308B
:100A300083120313DC002630DB006630DA00DA0BA9
:100A40001F2DDB0B1F2DDC0B1F2D262D272DF0302E
:100A50008A11F5238A1183120313DA005A08DD0084
:100A60005D08013A031D352D362D3A2D8A113B279D
:100A70008A113A2D831203135D08023A031D412D9A
:100A8000422D272D8A1150238A11272D272D272DFE
:100A90008A11002883120313CA01FC1F502D512D07
:100AA0005A2DFB09FC09FB0A0319FC0ACA010314AD
:100AB000CA0D5A2DFA1F5D2D5E2D642DF909FA0914
:100AC000F90A0319FA0A642D7A0879040319692DC1
:100AD0006A2DA02DC9010314C90D7A2D0130031010
:100AE000F90DFA0DFF3E031D6F2D0130FD007D084D
:100AF000C9077A2DFA1F7D2D7E2D6E2D802D802D1C
:100B00007A087C02031D862D79087B02031C892D3F
:100B10008A2D912D7908FB027A08031CFC03FC0244
:100B2000912D01300310FA0CF90CFF3E031D922D9C
:100B30000130C902031D9D2D9E2D802DA02DA02DBD
:100B40004A08031DA42DAA2DFB09FC09FB0A031961
:100B5000FC0AAA2D7C08FA01FA077B08F901F907BB
:100B6000B12D0800F501F2010830F3000030F40067
:100B70007408803AFF0080307F02031DC12D0130D0
:100B800073020318C42DC52DC72D1A2E1A2E13302B
:100B9000F000F00BC92DCC2D83120313861FD12D2D
:100BA000D22DD62DF2010314F20DD82DF201D82D3D
:100BB0007508F0000310700CF1007108F500720860
:100BC000031DE32DEA2D7508803EF0007008F50046
:100BD000EA2DEA2D861FED2DEE2DEA2DEF2D74085E
:100BE000803AFF0080307F02031DF82D023073022F
:100BF000031CFB2DFC2D062EFE2DFE2D8312031350
:100C0000861B032E042EFE2D062E062EFF30F30724
:100C10000318F40AFF30F4077408803AFF008030AC
:100C20007F02031D152E013073020318182E192E92
:100C3000C72D1A2E75081C2E0800F601F11F212E53
:100C4000222E2B2EF009F109F00A0319F10AF60100
:100C50000314F60D2B2EF31F2E2E2F2E392EF209F4
:100C6000F309F20A0319F30A0130F4007408F606D6
:100C7000392EF701F801710870040319402E412E36
:100C80007F2EF5010314F50D512E01300310F00DE8
:100C9000F10DFF3E031D462E0130F4007408F507E8
:100CA000512EF11F542E552E452E572E572E013002
:100CB0000310F70DF80DFF3E031D582E7108730247
:100CC000031D642E70087202031C672E682E702E9E
:100CD0007008F2027108031CF303F3027714702EFC
:100CE00001300310F10CF00CFF3E031D712E01309A
:100CF000F502031D7C2E7D2E572E7F2E7F2E76082B
:100D0000031D832E892EF709F809F70A0319F80A3B
:100D1000892E7808F101F1077708F001F007902E8D
:100D200008008A117A238A1100308A1146238A1119
:100D300021308A11D7238A11831203135E08303EB3
:100D40008A113D238A1140308A1146238A11453089
:100D50008A11D7238A110A3083120313CD004D085C
:100D6000F0005E088A1189238A11203E84008313D3
:100D7000000883120313CB00840A0008CC008A11F8
:100D800093248A1137308A11D7238A110A308312AB
:100D90000313CD004D08F0005E088A1189238A11E3
:100DA000023E203E84008313000883120313CB000D
:100DB000840A0008CC008A1193248A1114308A1105
:100DC00046238A114B308A11D7238A110A308312A5
:100DD0000313CD004D08F0005E088A1189238A11A3
:100DE000043E203E84008313000883120313CB00CB
:100DF000840A0008CC008A1193248A113E308A119B
:100E0000D7238A110A3083120313CD004D08F00056
:100E10005E088A1189238A11063E203E84008313CE
:100E2000000883120313CB00840A0008CC008A1147
:100E300093248A1154308A1146238A112D308A1145
:100E4000D7238A110A3083120313CD004D08F00016
:100E50005E088A1189238A11083E203E840083138C
:100E6000000883120313CB00840A0008CC008A1107
:100E700093248A110800F0308A11F5238A11831215
:100E80000313CE004E08D900F0308A11F5238A11E1
:100E900083120313CE004E08CF00F0308A11F523E1
:100EA0008A1183120313CE004E08D000F0308A114D
:100EB000F5238A1183120313CE004E08D100F030BF
:100EC0008A11F5238A1183120313CE004E08D20033
:100ED000F0308A11F5238A1183120313CE004E08D5
:100EE000D300F0308A11F5238A1183120313CE0048
:100EF0004E08D400F0308A11F5238A1183120313AF
:100F0000CE004E08D500F0308A11F5238A118312E5
:100F10000313CE004E08D600F0308A11F5238A1153
:100F200083120313CE004E08D700F0308A11F52348
:100F30008A1183120313CE004E08D8000A30CE0067
:100F40004E08F00059088A1189238A11203E840036
:100F500083120313500883138000840A4F08800013
:100F60000A30CE004E08F00059088A1189238A11F0
:100F7000023E203E84008312031352088313800034
:100F8000840A510880000A30CE004E08F00059084B
:100F90008A1189238A11043E203E840083120313A0
:100FA000540883138000840A530880000A30CE005E
:100FB0004E08F00059088A1189238A11063E203E06
:100FC000840083120313560883138000840A550893
:100FD00080000A30CE004E08F00059088A1189239B
:100FE0008A11083E203E840083120313580883139D
:100FF0008000840A570880008A1191268A1108000F
:02400E00D43F9D
:00000001FF
