:100000008A11D42B00308A000408840A8207003445
:1000100049346E3469347434693461346C3469340D
:10002000733469346E3467342E342E342E340034F5
:10003000203420342034203443346F347334793402
:1000400020344C3469347A3461347234643400348A
:1000500043346F346E34743472346F346C346C34B3
:100060006534723420340034483475346D34693466
:100070006434693474347934203400342034543492
:100080006D347034323420340034203454346D34C0
:10009000703434342034003454346D34703431349A
:1000A0002034003454346D3470343334203400340C
:1007A0008316031386170800BF0183018A11FB2CEF
:1007B000F60083120313051576088A1122248A1184
:1007C0000800F6008312031305117608803E8A1193
:1007D00022248A11080001308316031381000D3092
:1007E000831203138100F42B0B1DF72BF82BF42B32
:1007F0000B11080083120313051101308A11222402
:100800008A110230F0000030F1008A1109248A11A7
:100810000800F201F301162C8A11EB238A11013032
:10082000F2070318F30A0030F307162C730871025D
:10083000031D1C2C7208700203181F2C202C0C2C7A
:10084000212C0800F5000130F0000030F1008A1181
:1008500009248A117508F40004300310F40CFF3EDB
:10086000031D2D2C74080F39831203138700851480
:10087000851075080F398700851485100800F7006A
:10088000831203130515512C770884008A11022066
:100890008A118A1122248A110130F6007608F7079E
:1008A000512C770884008A1102208A110038031D18
:1008B0005A2C5B2C442C5C2C0800F800F901FA013E
:1008C000A32C622C83120313861B672C682C622CCA
:1008D000692C8A110E268A11F6007608FB00063074
:1008E000F600F60B712C6400752C83120313861B23
:1008F0007A2C7B2C752C7C2C8A110E268A11F60002
:100900007608F7000630F600F60B842C6400882C7D
:1009100083120313861B8D2C8E2C882C8F2C8A110E
:100920000E268A11F6007608FC007B087806031D67
:100930009A2C9B2CA32C0130F9000030FA007C0883
:10094000AA2CAA2CA32C7A0879040319A82CA92C68
:10095000622CAA2C0800831203179E010330F600B4
:100960007608F700831603138501870183120313AA
:100970000511851005120F30F0000030F1008A11CA
:1009800009248A11770883120313870085148510C0
:100990000A30F0000030F1008A1109248A11831214
:1009A0000313851485100A30F0000030F1008A111D
:1009B00009248A1183120313851485100A30F0006C
:1009C0000030F1008A1109248A11023083120313C6
:1009D00087008514851028308A1122248A110F304F
:1009E0008A1122248A118A11FA238A1106308A1167
:1009F00022248A110800831203179E019F01990186
:100A00009A017630831603138F00850186018701D2
:100A10008312031386018A11AB248A118A11D02311
:100A20008A118A11FA238A1100308A11E1238A116E
:100A300011308A113F248A1140308A11E1238A1132
:100A400001308A113F248A110B3083120313BD0039
:100A50002630BC006630BB00BB0B2C2DBC0B2C2DF4
:100A6000BD0B2C2D332D342DF0308A115D248A11CD
:100A700083120313BB003B08BE003E08013A031D6E
:100A8000422D432D342D8A11ED268A11342D342D1B
:100A9000342D8A1100280A30F9000030FA00643041
:100AA000F0000030F100831203132308F301F30771
:100AB0002208F201F2078A1179268A117108FC01D5
:100AC000FC077008FB01FB078A11A6258A1179082B
:100AD000303E8A11D8238A110A30F9000030FA001A
:100AE0000A30F0000030F100831203132308F301F1
:100AF000F3072208F201F2078A1179268A11710898
:100B0000FC01FC077008FB01FB078A11A6258A116E
:100B10007908303E8A11D8238A110F308A113F2478
:100B20008A110A30F9000030FA00831203132308F7
:100B3000FC01FC072208FB01FB078A11A6258A118C
:100B40007908303E8A11D8238A11080083120313D2
:100B5000A101FC1FAC2DAD2DB62DFB09FC09FB0A34
:100B60000319FC0AA1010314A10DB62DFA1FB92D1A
:100B7000BA2DC02DF909FA09F90A0319FA0AC02D8C
:100B80007A0879040319C52DC62DFC2DA001031484
:100B9000A00DD62D01300310F90DFA0DFF3E031DF7
:100BA000CB2D0130FD007D08A007D62DFA1FD92DD1
:100BB000DA2DCA2DDC2DDC2D7A087C02031DE22DF6
:100BC00079087B02031CE52DE62DED2D7908FB024B
:100BD0007A08031CFC03FC02ED2D01300310FA0C13
:100BE000F90CFF3E031DEE2D0130A002031DF92D6F
:100BF000FA2DDC2DFC2DFC2D2108031D002E062EC8
:100C0000FB09FC09FB0A0319FC0A062E7C08FA0101
:100C1000FA077B08F901F9070D2E0800F501F2012A
:100C20000830F3000030F4007408803AFF00803090
:100C30007F02031D1D2E013073020318202E212E6A
:100C4000232E762E762E1330F000F00B252E282E34
:100C500083120313861F2D2E2E2E322EF201031423
:100C6000F20D342EF201342E7508F0000310700CD2
:100C7000F1007108F5007208031D3F2E462E75081D
:100C8000803EF0007008F500462E462E861F492E45
:100C90004A2E462E4B2E7408803AFF0080307F0289
:100CA000031D542E02307302031C572E582E622E41
:100CB0005A2E5A2E83120313861B5F2E602E5A2E35
:100CC000622E622EFF30F3070318F40AFF30F40798
:100CD0007408803AFF0080307F02031D712E0130BE
:100CE00073020318742E752E232E762E7508782E17
:100CF0000800F601F11F7D2E7E2E872EF009F109E6
:100D0000F00A0319F10AF6010314F60D872EF31FFA
:100D10008A2E8B2E952EF209F309F20A0319F30A93
:100D20000130F4007408F606952EF701F8017108F9
:100D3000700403199C2E9D2EDB2EF5010314F50D76
:100D4000AD2E01300310F00DF10DFF3E031DA22E5C
:100D50000130F4007408F507AD2EF11FB02EB12E4E
:100D6000A12EB32EB32E01300310F70DF80DFF3E68
:100D7000031DB42E71087302031DC02E7008720289
:100D8000031CC32EC42ECC2E7008F2027108031C63
:100D9000F303F3027714CC2E01300310F10CF00CA6
:100DA000FF3E031DCD2E0130F502031DD82ED92E96
:100DB000B32EDB2EDB2E7608031DDF2EE52EF70982
:100DC000F809F70A0319F80AE52E7808F101F10786
:100DD0007708F001F007EC2E0800F0308A115D244E
:100DE0008A1183120313A4002408B000F0308A1182
:100DF0005D248A1183120313A4002408B100F0308B
:100E00008A115D248A1183120313A4002408B200FE
:100E1000F0308A115D248A1183120313A400240880
:100E2000B300F0308A115D248A1183120313A400E9
:100E30002408B400F0308A115D248A118312031350
:100E4000A4002408B500F0308A115D248A118312B1
:100E50000313A4002408B600F0308A115D248A111F
:100E600083120313A4002408B700F0308A115D2414
:100E70008A1183120313A4002408B800F0308A11E9
:100E80005D248A1183120313A4002408B900F030F2
:100E90008A115D248A1183120313A4002408BA0066
:100EA0003108A400A5012408A500A40132082407E4
:100EB000A6000030031801302507A7003308A4005E
:100EC000A5012408A500A40134082407A8000030C7
:100ED000031801302507A9003508A400A50124083E
:100EE000A500A40136082407AA0000300318013029
:100EF0002507AB003708A400A5012408A500A4011C
:100F000038082407AC000030031801302507AD0075
:100F10003908A400A5012408A500A4013A08240763
:100F2000AE000030031801302507AF008A11FA2304
:100F30008A1100308A11E1238A1121308A113F245D
:100F40008A11831203133008303E8A11D8238A1184
:100F500040308A11E1238A1145308A113F248A11D9
:100F6000831203132708A301A3072608A201A207DF
:100F70008A114B258A1137308A113F248A11831236
:100F800003132908A301A3072808A201A2078A11B5
:100F90004B258A1114308A11E1238A114B308A11B2
:100FA0003F248A11831203132B08A301A3072A08E5
:100FB000A201A2078A114B258A113E308A113F24D3
:100FC0008A11831203132D08A301A3072C08A20181
:100FD000A2078A114B258A1154308A11E1238A1104
:100FE0002D308A113F248A11831203132F08A30185
:100FF000A3072E08A201A2078A114B258A11080017
:02400E00D43F9D
:00000001FF
